:020000040000FA
:060000000A128A110C280F
:10000800FE00030EF1000A08F2000A128A11C02845
:100018000A128A110F28F70183010A128A11F62899
:1000280050287030831603138F04080083160313B7
:100038000F088F3960388F000800831603130F08E4
:100048008F3950388F000800831603130F088F3933
:1000580040388F000800831603130F088F39303893
:100068008F000800831603130F088F3920388F007C
:100078000800831603130F088F3910388F00080003
:100088008F30831603138F050800831603130F0898
:100098008F3960388F0008007608003A0319A528C0
:1000A800492874087D3A03195A2849287308003AE0
:1000B8000319442849287408E83A03196428492888
:1000C8007308483A03193D2849287408D03A031997
:1000D8006E2849287308903A031936284928740865
:1000E800A13A0319782849287308203A03192F28B8
:1000F80049287408423A0319822849287308403A63
:100108000319282849287408843A03198C2849288F
:100118007308803A0319212849287408093A0319F1
:10012800962849287308003A03191A284928740898
:10013800123A0319A02849287308003A0319152808
:1001480049287508003A03195528013A03195F2808
:10015800023A03196928043A03197328083A03195B
:100168007D28113A03198728233A03199128473A19
:1001780003199B2849280800831203138C1DEF28B4
:100188001412141BC928941FD1281308F0007008F2
:10019800F700141394131416ED2883160313941EF2
:1001A800141DED28831203131308F0007008F700DC
:1001B80083160313141083120313060893001416EE
:1001C8001030F000F00BE628000083160313141813
:1001D800E92883128C1172088A00710E8300FE0EC2
:1001E8007E0E09000030F6000C30F5003530F400C2
:1001F8000030F3000A128A1114200A128A113F30C3
:100208008316031386008316031789013F3083166C
:1002180003139500811360300A128A1116210A12FD
:100228008A111529F30073088316031393003630D7
:100238008312031394008030831603139400013053
:100248009100871507168B170B17831203138C1150
:08025800831603138C15080046
:04400E00D4E0FFFFFC
:00000001FF
